:10E000005542200135D0085A82454E023140000465
:10E010003F403C000F93082492424E0220012F8380
:10E020009F4FA8E10002F8233F4012000F930724FE
:10E0300092424E0220011F83CF433C02F923F24259
:10E040002700F2D22100F2F0F7FF22005F42200009
:10E050004F930E200F43DF4F12023E021F533F909B
:10E060000E00F93B824F3C02F2D0400021000D3CF3
:10E070000F43DF4F04023E021F533F900E00F93B57
:10E08000824F3C02F2F0BFFF2100B240805A2001D3
:10E09000C2435600D242FF105700D242FE10560033
:10E0A0005F422A00F2432A005F422900C24329004E
:10E0B000F2D006002600F2D006004100F2D0410066
:10E0C0002200A2D26001B24000026001B24372019C
:10E0D000B24010586201B2F0FFFE6201B2D01000EF
:10E0E0006001F2D080FF6100F24034006200C24360
:10E0F0006300F2400A006400F2F0FEFF6100F2D01B
:10E1000003000100F2D080FF650032D28293020248
:10E1100009243F40A2541F83FE2382434C029243B2
:10E120000202F43FFF3F32D0F000FD3F3040A6E155
:10E130000F120E12D2D321001F424C02D24F3E02C8
:10E1400067001F53824F4C023F900D000720F2F0F2
:10E15000FDFF01008243020292E30002F2F0FEFFA3
:10E1600021003E413F4100130F125F4266007F9045
:10E170000A000E20B2D0100062013F40A2541F835B
:10E18000FE23E2D30100D2423E02670092434C02DA
:10E190003F4100130F12F2E040002100B2F0EFFF08
:08E1A00062013F41001300136E
:10E1A800010001004E4F5420507265737365640D71
:10E1B8000A0059455320507265737365640D0A004F
:10E1C8005465737420342044534F210D0A00486568
:0CE1D8006C6C6F20576F726C640D0A00B5
:10FFE0002CE12CE12CE12CE12CE12CE130E168E169
:10FFF0002CE194E12CE12CE12CE12CE12CE100E05E
:040000030000E00019
:00000001FF
