:10E000005542200135D0085A8245100331400004A2
:10E010003F401A000F9308249242100320012F83DF
:10E020009F4FDAFD0002F8233F40F6000F930724CC
:10E030009242100320011F83CF431A02F923F240BA
:10E04000E2FF1A00F24095FF1900F240150010009F
:10E05000D242FE1056005F42FF107FD080FFC24FB9
:10E060005700E24253001E4236023F406400043C27
:10E07000B2400D5A20013E433F53FA23824E3602EE
:10E080008243A602F240B4FF2200C2432100F240C4
:10E0900009002700C2432600C2432500F24080FF4A
:10E0A0002A00F2401D002900F2400B002F00F24030
:10E0B000C0FF2E00C2432D00C2432B00B01284E8E3
:10E0C000F2D0E0FF2600F2D0E0FF4100D243690029
:10E0D000F2D0A9FF6800F2D080FF6900D2426A0046
:10E0E0006A00C2436B00F2F0FEFF6900B240FF7F9E
:10E0F0008402B240FF7F8602B240FF7F8802B240B6
:10E10000FF7F8A02B24004016001B2400002720146
:10E11000B240100062015F42FF025F53C24FFF0234
:10E120006F920228C243FF021D4270015E42FF024D
:10E130000E5E5F4204038F100F5F0F5F0F5F1F5E65
:10E1400084020F5D824F74011D433E4062023F40D6
:10E150000010B0121CEC3D423E40A8023F4080102F
:10E16000B0121CEC1F42AA021F52A8021F52AC029E
:10E170001F52B6021F52AE021F52B0021F52B2020D
:10E180001F52B4023F9315248243A8028243AA027D
:10E19000B2401000AE02B2403020B002B240504057
:10E1A000B202B2407060B4028243AC02F2D01000FE
:10E1B00058021F42AC020E4F3E50FF0F3E90DF0E42
:10E1C00005283F50DFFE3F90DE0E052C8243AC0257
:10E1D000F2D0100058023D4006003E4076023F401B
:10E1E0004010B0121CECB012E2EA0F931B24F2D0E4
:10E1F00010005802C2437802F2400A007A02F2404C
:10E2000005007B02F2407E007C02F2400F007D029E
:10E21000F2437E02F2437F02F2438002E242810235
:10E22000B2437602B2D02000600132D2B01228E9A7
:10E23000E2430703F2D040001900B2402000A602DA
:10E24000053CB2400D5A200132D0D0008293A60284
:10E25000F823F2F0BFFF1900C2430703E2D32900FD
:10E26000B2404001A602073CB2400D5A200132D014
:10E27000D000E2D329008293A60205245F42280041
:10E280002FF3F227673CE2D32900B2408000A602B8
:10E290000C3CF2D040001900E2430703B2400D5A93
:10E2A000200132D0D000E2D329001E42A6020E93F4
:10E2B00004245F4228002FF3EC27F2F0BFFF19007F
:10E2C000C24307030E934324C2437802F2400A007C
:10E2D0007A02F24005007B02F2407E007C02F240AE
:10E2E0000F007D02F2437E02F2437F02F24380027E
:10E2F000E2428102B2437602C2437902B012E2EAFC
:10E30000C24F79023D4006003E4040103F40760239
:10E31000B0122EECB2400D5A200182433602133C5B
:10E32000C2430703F2E040001900B2401000A60209
:10E33000053CB2400D5A200132D0D0008293A60293
:10E34000F82392533602B2900A003602E92BF2F01B
:10E35000BFFF1900D2427B020E035F427A024F5F79
:10E360004F5FC24F0503F2430D03C2437202E24204
:10E370000803B01268FDA2423602F240F0FF00032B
:10E38000B2402000A60232C20343E2422D0032D244
:10E390001F4256022F53B293760207203FF0FE7FB2
:10E3A000824F560282436401093C3FF0FE7F3FD01A
:10E3B0000080824F5602B24010006401F240130008
:10E3C00070025F4202002FF21424B2400D5A200165
:10E3D00082433802824362021D433E4000103F40A8
:10E3E0006202B0122EECF2F0FBFF0200B2400D5AB6
:10E3F00020013B406A02B2400D5A20011F42180220
:10E400000F9330209243180292931C0228203F4021
:10E4100082061F83FE23B2400D5A20011F421602BE
:10E420000F9303243F921E20173C1F4214020F93A8
:10E430001924824326023E4006003F400D02B012DE
:10E4400004E9033CB2400D5A20011F4226020F93FB
:10E45000F927A2431402063C5F428D02033CB240FE
:10E460000D5A20015F4200037F90030002203040DC
:10E4700088E66F92072C4F9378246F9302243040E4
:10E4800052E8D63C7F900A00022030403EE87F9060
:10E49000F0FF0224304052E8F2B282023F2492B3ED
:10E4A000B2013C205F42FE025F53C24FFE026F92F8
:10E4B0000528C243FE02F2F0F7FF82021F42B401B8
:10E4C0005E42FE0212C30F1012C30F10CE4F320273
:10E4D0005F4232025E4233020F5E5E4234020F5EE2
:10E4E0005E4235020F5E12C30F1012C30F104E4F63
:10E4F000C24F03037E908AFF032CF2D25802063CDF
:10E500007E9095FF0328F2F0F7FF5802F2B28202E4
:10E510000324B01268FD023CB01280FDC2930B03CD
:10E520000320F2B2820203248293A6021A201F4221
:10E5300036023F53824F36020224304052E8C24333
:10E5400000035E420F030F4E3FF007005F4FAE0225
:10E550003F508000824F6A025E53C24E0F0330402C
:10E5600052E8A2433602304052E8C2930103182415
:10E57000F2D02000190082936A020D205E420F0340
:10E580000F4E3FF00700D24FAE026A02CB430100AC
:10E590005E53C24E0F03F2F0DFFF1900304052E825
:10E5A0005F425802C2930E030324E2B272020420B7
:10E5B0006FD3C24F5802043C7FF0FDFFC24F580298
:10E5C0005E4272026EF35F42580205247FF0FBFF49
:10E5D000C24F5802033C6FD2C24F5802B293760228
:10E5E00009205F4258025F920A030424C24F0A03C3
:10E5F000E2430703D292590258020D24E2B3820289
:10E600000A20E2420803B012B0F3E2430003A2433F
:10E61000A602304052E882936A020224304052E857
:10E62000B012B0F3E2430003A243A602304052E826
:10E63000D2B3DA021324B01268FDF240640006037C
:10E64000F24003000003A243A602B2937602022422
:10E65000304052E8A242A602304052E88293A6021D
:10E660000224304052E8F2D080FF1900B01260EB73
:10E67000F24010007002F2D0100058029253A4022F
:10E68000C2430003304052E8F2B282025D2492B3EA
:10E69000B2015A205D423C02C24D3D025C423B0247
:10E6A000C24C3C025A423A02C24A3B021E42B401E8
:10E6B00012C30E1012C30E104F4EC24E3A025E42EB
:10E6C00006037E53C24E06030424B2D00300B001F9
:10E6D0003B3C5E42FE025E53C24EFE026E92022838
:10E6E000C243FE025E42FE024F4F4A4A0F5A4C4C52
:10E6F0000F5C4D4D0F5D12C30F1012C30F10CE4FA4
:10E7000032025F4232025E4233020F5E5E423402E8
:10E710000F5E5E4235020F5E12C30F1012C30F1060
:10E720004E4FC24F03037E908AFF032CF2D2580251
:10E73000063C7E9095FF0328F2F0F7FF5802F2F0B6
:10E74000F7FF8202B01280FDC293D7026924C24350
:10E75000D702B012E6F4824F36020F937A245F425A
:10E7600082027FF0FDFFC24F8202D2424102590273
:10E77000E24208037FF010000324F2400300070385
:10E780001F4256022F53B293760205203FF0FE7FC0
:10E79000824F5602063C3FF0FE7F3FD00080824F02
:10E7A0005602D242D6026402B01202EBF29003008B
:10E7B00065020324C2430003303CA29336022B209F
:10E7C000B01232EE6F42B0126AEF7D4003000E438A
:10E7D0003F407100B012D8ED7D4003003E423F4003
:10E7E0000700B012D8EDD242FE1056005F42FF1073
:10E7F0007FD080FFC24F5700F2400A0000035E4204
:10E8000046020F4E0F5F0F5E0F5F824FA602F2406F
:10E81000FAFF0703023CC2430003B01280FD193C1B
:10E820008293A6021620F2D080FF1900F243500214
:10E83000B01260EBC2430003B01280FD0A3C829329
:10E84000A6020720F2D080FF1900C2430003D24382
:10E8500007035F4200036F836F930B2C5F42280016
:10E860003FF0200002243040F6E3B01298F8304028
:10E87000F6E332D0D0003040F6E332D0F000FD3F76
:10E8800030408EFDE2D22700F2F0FBFF2200E2D200
:10E8900021005F4220002FF20E208243B802F2F0E6
:10E8A000FDFF2200F2F0FDFF2400F2F0FDFF230047
:10E8B000E2D3250030419243B802A2D28001B2D007
:10E8C00000028001B24088139201D2D36100F2D0DD
:10E8D00080FF6100F24034006200C2436300C24323
:10E8E0006400F2F0FBFF2700E2D22200F2D0060023
:10E8F0002600F2D006004100F2F0FEFF6100D2D304
:10E90000010030411D42B8021D930D200D43053C0E
:10E910000C4F0C5DED4C98021D530D9EF923824D5A
:10E920001E02E2D3010030411F42B8021F9384202F
:10E93000B2400D5A20011F4218020F93F92392434F
:10E94000180292931C0274203F4082061F83FE230C
:10E95000B2400D5A20011F4216021F9313240328B0
:10E960003F92E6235F3C1F4214020F93E12782434C
:10E9700026023E4006003F400D02B01204E9A243C9
:10E980001402D63F824326023E4006003F400D025D
:10E99000B01204E9A2431402033CB2400D5A200114
:10E9A0001F4226020F93F9273F40CF071F83FE2304
:10E9B0000343B2400D5A2001824326023E40060026
:10E9C0003F400702B01204E992431402033CB240F4
:10E9D0000D5A20011F4226020F93F9278243260277
:10E9E000033CB2400D5A20011F4216022F93F92317
:10E9F0003F40040D1F83FE2303430343B2400D5ADF
:10EA000020013E4005003F400202B01204E9B2423C
:10EA10001402033CB2400D5A20011F4226020F93FC
:10EA2000F9273041D2428D021A02C2431B02803FB5
:10EA3000B2400D5A20017C3F30410B121F4274013D
:10EA40001D42BA023F50C9060F8D1E42BC020D5E28
:10EA50003D5037F91C4270010B4D0B8C0B93023863
:10EA6000824D74010F9E1A2C0E8F3E90070037289E
:10EA70001F4284021E4286020F9E022C1F53193C25
:10EA80001F4288020E9F022C1E531B3C1E428A020C
:10EA90000F9E022C1F531D3C1E531F3C0F8E3F9098
:10EAA00007001D281F4284021E4286020E9F042C6E
:10EAB0003F53824F8402133C1F4288020F9E042C56
:10EAC0003E53824E86020B3C1E428A020E9F042C4D
:10EAD0003F53824F8802033C3E53824E8A023B41A1
:10EAE00030410E433F40695A1FEE76022E533E904E
:10EAF0000C00FA230E4F3EF0FF008F104F4F0FEE29
:10EB00003041D2B382020724B24021006A02F2F0FF
:10EB1000FEFF8202213C5E4265027E9003000420DB
:10EB2000B24051006A02183C5F420F035E93082016
:10EB30000E4F3EF007005E4EAE023E50B100073C65
:10EB40000E4F3EF007005E4EAE023E50011E824E5A
:10EB50006A025F53C24F0F03F2F0EFFF58023041D9
:10EB60005F4265025F9303247F9003000B20D24233
:10EB700058025902E2420803F2F0FDFF8202B0128D
:10EB800002EB30411F4268023F9303241F53824F20
:10EB900068025F4208034F9320245D420F030E4D2D
:10EBA0003EF007005E4EAE023E505100824E6A02B9
:10EBB0005D53C24D0F037F53C24F08036F931E2056
:10EBC0001F4256022F533FF0FE7FB293760202247B
:10EBD0003FD00080824F5602113C1F4266023F9395
:10EBE00003241F53824F6602D24258025902E24266
:10EBF0000803F2F0FDFF8202B01202EBE2B2DA0289
:10EC00000424F2401000700230415F4270027F9095
:10EC10001700032C5F53C24F700230410C43043C79
:10EC2000BE4F00002E531C530C9DFA23304132C2BC
:10EC30000343B2400D5A2001B24042A52A01B2401E
:10EC400000A52C01B24002A528018E430000B2406D
:10EC500000A52801B24010A52C01B2400D5A200198
:10EC60000C43133CB24000A52C01B24040A5280142
:10EC7000BE4F0000B24000A52801B24010A52C01F3
:10EC80002E53B2400D5A20011C530C9DEB231F4202
:10EC900070013F500002824F720132D230411E4259
:10ECA0005602824EE602D2425802E9029242A8027D
:10ECB000EA029242AA02EC0292427602F602D242A2
:10ECC0006402F8025F4278020F5F0F5F0F5F0F5F11
:10ECD0005D4265024DDFC24DF9025F420C03C24F37
:10ECE000E8027F508CFF7F900B00452C4F4F0F5F49
:10ECF000104F90FDD2427A02EE02D2427B02EF0226
:10ED0000D2427C02F002D2427D02F102D2427E0265
:10ED1000F202D2427F02F302D2428002F402E242C5
:10ED2000F5023A3C9242AC02EE02B243F002B24328
:10ED3000F202F243F402F243F5022E3CF2401900D3
:10ED4000EE02D243EF0292426602F0029242680261
:10ED5000F202083C92426602EE0292426802F0021F
:10ED6000B243F202B243F402173C92426202EE0254
:10ED7000B243F002F53FC243E80292426202EE0261
:10ED8000D2420303F002D2427002F10292427402B4
:10ED9000F2029242A402F4020F4E3FF006002F93BB
:10EDA0000F243F900300032C0F93072430412F9230
:10EDB0000B243F9006000F200B3CC2430C03304154
:10EDC000F24077000C033041F24074000C033041F4
:10EDD000F24076000C0330410B125C4203003CF21F
:10EDE000FC27F2F0FBFF03004D4D0B4D2BF30224EB
:10EDF00032C203431DF30524F2F0FDFF19003FD09A
:10EE00008000C24F6F005F4203002FF2FC27F2F038
:10EE1000FBFF0300C24E6F005F4203002FF2FC278E
:10EE20000D930224E2D319000B93012432D23B410B
:10EE300030411E427001824E3602063CF2F07F00E5
:10EE40001900B2400D5A20011F4270010F8E3F90F1
:10EE50009A02F42B7D4003003E40B9003F40090078
:10EE6000B012D8ED7D4003001E433F400700B012B2
:10EE7000D8ED30410B120A125B4203003BF2FC2733
:10EE8000F2F0FBFF03004C4C0A4C2AF3022432C27E
:10EE900003431CF30624F2F0FDFF19007ED080FF2F
:10EEA000023C7ED04000C24E6F005E4203002EF254
:10EEB000FC27F2F0FBFF03000E434D4D0C3C0B4FC3
:10EEC0000B5EE24B6F005B4203002BF2FC27F2F07B
:10EED000FBFF03001E530E9DF22B0C930224E2D382
:10EEE00019000A93012432D23A413B4130410B12BE
:10EEF0000A1209125B4203003BF2FC27F2F0FBFF0F
:10EF000003004C4C0A4C2AF3022432C203431CF384
:10EF10000424F2F0FDFF1900023C7ED0C0FFC24E77
:10EF20006F005E4203002EF2FC27F2F0FBFF0300AD
:10EF30000E434D4D0D3CC2436F005B4203002BF26C
:10EF4000FC2759426E000B4F0B5ECB4900001E534D
:10EF50000E9DF12B0C930224E2D319000A93012495
:10EF600032D239413A413B4130413150F4FFB29302
:10EF700076020420F24017007002173C5E425002F5
:10EF80007E904F0007285E4270027E9017000D2C85
:10EF90005E53093C7E904100082C5E4270027E90D8
:10EFA000110003287E53C24E7002D142700201004C
:10EFB000F1400C000200F140CDFF0300F1400500DC
:10EFC0000400F14023000500F14028000600F29003
:10EFD000030065020B20E2B3DA020824F2F0FDFF21
:10EFE000DA02C1430700C1430800093C1E42AC02DB
:10EFF000C14E07008E107EF00300C14E0800F140A4
:10F00000730009004F4F0F5F1F4FCEFD0E4F8E1044
:10F01000C14E0A00C14F0B00C1430000063C5D43D6
:10F020007E4062000F41B012EEEE6F413FF0E00013
:10F030007C4003003F902000F2237D427E4005008B
:10F040003F40C5FDB01274EE7D4003003E4080009D
:10F050003F405800B012D8ED7C4003007D400B00CB
:10F060007E406D000F411F53B01274EE7C400300D0
:10F070007D400A007E401C003F40BBFDB01274EE94
:10F080007D4003003E4028003F402A00B012D8EDEA
:10F090007D4003003E4060003F406900B012D8ED63
:10F0A0007D4003003E408C003F403000B012D8ED60
:10F0B0007C4003007D4005007E4033003F40B6FDAC
:10F0C000B01274EEF1403E000100F1403E0002003B
:10F0D000F1403E0003007C4003007D4003007E4081
:10F0E0007D000F411F53B01274EE7D4003003E407F
:10F0F00013003F42B012D8ED7D4003003E401000A7
:10F100003F42B012D8ED7C4003006D437E400300C7
:10F110000F411F53B012EEEEF14006000100F14026
:10F12000C1FF02007C4003006D437E4005000F419B
:10F130001F53B01274EE7C4003006D437E40030009
:10F140000F411F53B012EEEE31500C0030410B1244
:10F150000A1209124E4E6A4F494A0C430D494B4C54
:10F160007BF00F004B9303240D117B53FB3F1DF3EA
:10F1700001241E531C533C900700F0231EF303246C
:10F180007AD080FF023C7AF07F00CF4A00003941FC
:10F190003A413B4130410B124E4E0C434F4F0D4F05
:10F1A0004B4C7BF00F004B9303240D117B53FB3F23
:10F1B0001DF301241E531C533C92F1231EF31F43E5
:10F1C00001240F433B4130410B120A120A4F0C4FEE
:10F1D0008C101CF30C5C0D4F8D104D4D12C30D1097
:10F1E0000E4D1EF30E5E0E5E0C5E1FF30C5F2DF3D4
:10F1F0000D5D0D5D3E4035C10F434D5C7DF01F0040
:10F200004D9304240F110E107D53FA3F0B4E3BF02B
:10F2100005000B5B0D4A12C30D1012C30D100F4DEC
:10F220001FF30F5F0C4D2CF20C5F12C30A101AF380
:10F230000C5A3DF23E4096540F434D5C7DF01F004A
:10F240004D9304240F110E107D53FA3F3EF005003C
:10F250000F4B0F5E3A413B4130410B120A1209122B
:10F260000812071206120512454F074E0A4C5E425D
:10F2700082020D931D347ED02000C24E82021842BD
:10F2800076020B4D09430D4B0DE80E470E590F4DFD
:10F290002FEEB012C8F10D4B0D5D0D5D0D5D0D5DD6
:10F2A0000B4D0B5F29533992EE23094345453D3CF5
:10F2B0007EF0DFFFC24E82020B4D09430E470E590E
:10F2C0000F4B2FEEB012C8F10D4B0D5D0D5D0D5DB6
:10F2D0000D5D0B4D0B5F29533992F023E63FCA4376
:10F2E00000000D493DF007000D5D0647065D0F4B20
:10F2F0002F56B012C8F1CA4F00000B5B084F38F010
:10F30000030008EB0F482F56B012C8F10B4F0B5BF0
:10F310000B5B0B5B0B5BCA5B00000C480C5C0B4F80
:10F320003BF003000BEC19531A530995D82B3541C8
:10F3300036413741384139413A413B4130410B1266
:10F340000A1209123150EEFF0A4F094E0B4D0C41C3
:10F350000D4F3E40A6FD7F401200B0125AF24E43C0
:10F360000F49B0124EF15E430F491F53B0124EF1D8
:10F370000C430F4B0F5C0D410D5C0E490E5C6D4D47
:10F380006DEECF4D02001C533C901200F2235F4BF8
:10F390000A004FEACB4F00008A105F4B0C004FEA87
:10F3A000CB4F01003150120039413A413B413041CD
:10F3B0003150ECFFF290030065020320F24011008F
:10F3C0000703C29309030924C24309031D433E40B6
:10F3D00000103F406202B0122EECB01232EEE2D3C7
:10F3E0008202B0129EEC0D413E40E8021F42E6024E
:10F3F000B0123EF3F2F0FEFFDA025F427802B01282
:10F400006AEF7D4003003E4014003F403E00B012D2
:10F41000D8ED7C4003007D4014007E407F000F410A
:10F42000B01274EE7D4003003E400B003F400700E9
:10F43000B012D8EDC243D702F2F0FBFFDA0231502E
:10F44000140030410B120A1209123150ECFF0A4F1E
:10F450000B4E594F0A0069EF49495F4F0C005FEAB4
:10F4600001004F4F8F10095F0C410D493E40A6FD32
:10F470007F401200B0125AF24E435F4A02006FE121
:10F48000B01296F10F9321245E435F4A03005FE1BF
:10F490000100B01296F10F931F20183C0E4B0E5F27
:10F4A0000C410C5F0D4A0D5F6C4C5CED0200CE4CC4
:10F4B00002001F533F901200F123FBF07F00020077
:10F4C000FBF07F0003001F43013C0F433150140049
:10F4D00039413A413B413041CB4900008910CB4989
:10F4E00001000F43DB3F0B12F2901600BE02022414
:10F4F00030408EF85F42D4028F105E42D3020F5E1E
:10F50000824FBC023E403E023F40BF02B01244F474
:10F510000F93022030408EF81D42A8021D92420235
:10F52000022430408EF81C42AA021C92440202249B
:10F5300030408EF81F4256021F531F923E02022493
:10F5400030408EF81E4276023E9305241E924E02F3
:10F55000022430408EF85F4240027F907700022004
:10F5600030404EF87F907800202C7F9072007E24EF
:10F570007F9073000A2C5F93022030400CF87F903C
:10F5800071000224304078F84D3C7F9075000220D5
:10F59000304056F87F9076000228304046F87F9041
:10F5A00073000224304078F8963C7F907B00C8249A
:10F5B0007F907C000A2C7F9078001D247F9079003A
:10F5C0000224304078F83040ECF77F907D0007242B
:10F5D000E5287F907E000224304078F8A23C1F424C
:10F5E0004A023F901500022C304078F8F2400300A8
:10F5F00065023040FAF7F2900300650202243040C1
:10F600008EF85F4247025FF34F5F5E42DA027EF0A0
:10F61000FDFF4EDFC24EDA0292424A026E022F43D3
:10F62000304094F8F29003006502022430408EF8D6
:10F630001E424602824EAC0292424A026E020F4CB9
:10F640000F5D0F5E1F52AE021F52B0021F52B20278
:10F650001F52B4023FE3824FB6023D423E4080104B
:10F660003F40A802B0122EEC30404EF8F29003005A
:10F670006502022430408EF81F424602824FA802E3
:10F680005E424802824EAA021B424A02824BAE02EE
:10F690001C424C02824CB0021D424E02824DB2020C
:10F6A000D2425002B402F2435002D2425102B50299
:10F6B0000F5B0F5C0F5D1F52AC021F52B4020F5E56
:10F6C0003FE3824FB6023D423E4080103F40A802D9
:10F6D000B0122EECCE3CD24246027A02D24247020F
:10F6E0007B02D24248027C02D24249027D02D242CF
:10F6F0004A027E02D2424B027F02D2424C02800278
:10F70000E2428102C2437902B012E2EAC24F7902B8
:10F710003D4006003E4040103F407602B0122EECC5
:10F72000923C82433802824362021D433E400010F5
:10F730003F406202B0122EECF2407E000C03993C76
:10F740001F4246021F924E02A2200E4F3EE31E921F
:10F750004A029D201E4248021D424C023DE30E9D7E
:10F7600096203F939424824F7602C24E7802C24381
:10F770007902B012E2EAC24F79023D4006003E40F3
:10F7800040103F407602B0122EECF24076000C039F
:10F79000D2D38202B240100064017B3C3E937724B6
:10F7A000B2934602742082934A0271201F4248029B
:10F7B0001E424C023EE30F9E6A200F936820B24324
:10F7C0007602C2437802C2437902B012E2EAC24F23
:10F7D00079023D4006003E4040103F407602B012A4
:10F7E0002EECD2D3820282436401533C1F424A0270
:10F7F0003F9015000528D2436502824F6E02493CB6
:10F80000D29365023920D2D38202363C1E924E0238
:10F8100040205F4251024E4F7EF00300C24E04036F
:10F820003FF20F110F110F114F4F4F5F4F5F4F5F9F
:10F830004F5F5E4282027EF0EFFF4EDFC24E8202D9
:10F84000B0123AEA1F3CF24076000C03123CF24040
:10F8500077000C030E3C8243660282436802F2F09A
:10F86000EFFF5802824374028243A402F240750003
:10F870000C03D2D382020D3C3E930420F2400F00D1
:10F880006502023CC243650282436E02023C0F43A2
:10F89000013C1F433B41304121825C436D437E402C
:10F8A00003000F411F53B012EEEE5F4102003FF024
:10F8B00040000C245D433E4012003F42B012D8EDA0
:10F8C0005D433E4010003F42B012D8EDC1930200AC
:10F8D0001D3492427001BA025C435D437E402600B3
:10F8E0000F41B012EEEE6F4112C34F10C14F000036
:10F8F0007F907A00062C7E407A004E8FC24ED60250
:10F90000023CC243D602F240060006035F410100FA
:10F910002FF331245C435D437E404B000F41B01216
:10F92000EEEEF190160000001A20D2B3DA0217248E
:10F930005C437D4017007E407F003F40BE02B01216
:10F94000EEEE6F415F53C24FD802C24FD702C143A0
:10F950000100C1430200F2D080FF19000C3C5D435E
:10F960003E4013003F42B012D8ED5D433E401000D0
:10F970003F42B012D8ED5F4101002FF20824D2D3EC
:10F98000DA025D432E423F400700B012D8ED5F41DE
:10F9900002001FF3072492537402E2D2DA02F2D07B
:10F9A00080FF1900215230410F125F4223002FF2D5
:10F9B00017245F4225002FF21324F2F0FBFF2500ED
:10F9C000F240030002035F420E034F9303247F5370
:10F9D000C24F0E035F427A024F5F4F5FC24F050373
:10F9E0003F4100130F120E121F422402D24F980201
:10F9F00067001F53824F24021F9312201E420002F1
:10FA00001E930E205E4267004E930A20B2D0100073
:10FA10008201B2D010008001F2F0FDFF01000D3C28
:10FA20001E421E020F9E0920F2F0FDFF01008243DC
:10FA3000240292430002924326023E413F410013BA
:10FA40000F120E120D120C120B121F4220021F93E6
:10FA5000102406282F9315243F900300A820173C5C
:10FA60005F4266004F93A320824328029243200204
:10FA70009E3C5F4266007F90AAFF9720A24320022F
:10FA8000963CD24266002A02C2432B02133C1F421C
:10FA900028021D422A020B4F2B530C4D3C530E4F94
:10FAA0003E508C020B9C0A34DE42660000001F535D
:10FAB000824F2802B24003002002793CDE426600F9
:10FAC000000082432C023D50AA000E43073C0C4E1E
:10FAD0003C508C026C4C4C4C0D5C1E530E9FF73B03
:10FAE000824D2E02824E2C023F508C026F4F5F924D
:10FAF0002E02032482431C02023C92431C025F42FA
:10FB00008C027F9090FF3A247F9091FF112C7F9080
:10FB1000150025247F901600042C7F9006004320BA
:10FB20001B3C7F9070001F247F9071003C201E3C86
:10FB30007F9093FF2E247F9094FF072C7F9091FF5E
:10FB400020247F9092FF2F20203C7F9094FF25243B
:10FB50007F9095FF2820243CA2431602243CB2400B
:10FB600003001602203C824316021D3C5F428D02B8
:10FB70007F901F00182092431602153CA2421602E5
:10FB8000123CB240050016020E3CB24006001602BE
:10FB90000A3CB24007001602063CB2421602033C81
:10FBA000B2400900160282431802824320023B4100
:10FBB0003C413D413E413F4100130F120E12B250F5
:10FBC00000027201F2D00A0029001F42A6020F9320
:10FBD00003243F53824FA6025F4201034F93032445
:10FBE0007F53C24F01035F4228007FF00E00D243D3
:10FBF00029005E420D034E9F0524C24F0D03E242D1
:10FC00000B030D3C5F420B034F9304247F53C24F01
:10FC10000B03053C7F400E004FCEC24F72025F4285
:10FC200002034F9309247F53C24F02030520F2F0D1
:10FC3000FBFF2B00E2D22D001F426A020F93032428
:10FC40003F53824F6A025F4230025F53C24F30021D
:10FC50007F9010004A28C24330025F4207034F934F
:10FC60000F247F53C24F070305205F4219007FF026
:10FC7000BFFF043C5F4219007FD04000C24F190013
:10FC80005F4205034F9307247F53C24F05030320B0
:10FC9000D2427B020E035F4231025F53C24F3102F8
:10FCA0006F922328C24331021F4238021F53824FF2
:10FCB00038023F90110E06288243380292536202A6
:10FCC000D24309031F426E020F930F243F53824F0A
:10FCD0006E020B20B29376020420F2400F00650200
:10FCE000023CC243650282436E02B1C0D0000400F0
:10FCF0003E413F4100130F120E120D12F2D02000B0
:10FD000019001F422E01C24F01035F42FF025F53E1
:10FD1000C24FFF026F920228C243FF021D427401CC
:10FD20005E42FF020E5E5F4204038F100F5F0F5FA3
:10FD30000F5F1F5E84020F5D824F7401E242010378
:10FD4000F2F0DFFF19003D413E413F4100130F1229
:10FD5000B2F0EFFF8001B2F0EFFF820182430002B8
:10FD6000E2D301003F410013B24000B0B201B24003
:10FD70007035B001B2D00300B001F2D2820230413E
:10FD8000B2F0FDFFB001B2404035B0013041FF3F5D
:10FD90003CED54EDF4EC24ED76ED76ED76ED76ED7C
:10FDA00076ED76ED6AEDF8F3A55A994657C32659D4
:10FDB0009C5A28AF3236020C2A543D05440A03509F
:10FDC00001999A066800000113B9071215008066B0
:0AFDD0000069806B006EC067190126
:10FDDA00010000AA0439E700AA053001E000AA05DB
:0AFDEA00067126000A000A0001005D
:10FFE00080E880E8A8F980E880E880E8E4F940FA51
:10FFF000F6FCBAFB80E880E880E84EFD80E800E08F
:040000030000E00019
:00000001FF
