:10E000005542200135D0085A82450E0331400004A4
:10E010003F401A000F93082492420E0320012F83E1
:10E020009F4FA0FE0002F8233F40F4000F93072407
:10E0300092420E0320011F83CF431A02F923F240BC
:10E04000E2FF1A00F24095FF1900F240150010009F
:10E05000D242FE1056005F42FF107FD080FFC24FB9
:10E060005700E24253001E4234023F406400043C29
:10E07000B2400D5A20013E433F53FA23824E3402F0
:10E080008243A402F24095FF2200C2432100F240E5
:10E0900028002700C2432600C2432500F24080FF2B
:10E0A0002A00F2401D002900F2400B002F00F24030
:10E0B000C0FF2E00C2432D00C2432B00B012F0E778
:10E0C000B240FF7F8202B240FF7F8402B240FF7FF6
:10E0D0008602B240FF7F8802B24004016001B24074
:10E0E00000027201B240100062015F42FD025F5304
:10E0F000C24FFD026F920228C243FD021D42700111
:10E100005E42FD020E5E5F4202038F100F5F0F5FE3
:10E110000F5F1F5E82020F5D824F74011D433E4000
:10E1200060023F400010B0128CEB3D423E40A60220
:10E130003F408010B0128CEB1F42A8021F52A60273
:10E140001F52AA021F52B4021F52AC021F52AE024B
:10E150001F52B0021F52B2023F9315248243A602FF
:10E160008243A802B2401000AC02B2403020AE029E
:10E17000B2405040B002B2407060B2028243AA0284
:10E18000F2D0100056021F42AA020E4F3E50FF0F5F
:10E190003E90DF0E05283F50DFFE3F90DE0E052C3F
:10E1A0008243AA02F2D0100056023D4006003E40D3
:10E1B00074023F404010B0128CEBB01252EA0F9341
:10E1C0001B24F2D010005602C2437602F2400A002D
:10E1D0007802F24005007902F2407E007A02F240B5
:10E1E0000F007B02F2437C02F2437D02F2437E0287
:10E1F000E2427F02B2437402B2D02000600132D208
:10E20000B012A0E8E2430503F2D040001900B2408A
:10E210002000A402053CB2400D5A200132D0D000AB
:10E220008293A402F823F2F0BFFF1900C243050352
:10E23000E2D32900B2404001A402073CB2400D5A8B
:10E24000200132D0D000E2D329008293A402052419
:10E250005F4228002FF3F227673CE2D32900B24047
:10E260008000A4020C3CF2D040001900E2430503F8
:10E27000B2400D5A200132D0D000E2D329001E4214
:10E28000A4020E9304245F4228002FF3EC27F2F03F
:10E29000BFFF1900C24305030E934324C243760215
:10E2A000F2400A007802F24005007902F2407E0056
:10E2B0007A02F2400F007B02F2437C02F2437D02BD
:10E2C000F2437E02E2427F02B2437402C24377020B
:10E2D000B01252EAC24F77023D4006003E40401065
:10E2E0003F407402B0129EEBB2400D5A20018243AF
:10E2F0003402133CC2430503F2E040001900B2406F
:10E300001000A402053CB2400D5A200132D0D000CA
:10E310008293A402F82392533402B2900A0034028A
:10E32000E92BF2F0BFFF1900D24279020C035F42E1
:10E3300078024F5F4F5FC24F0303F2430B03C243A8
:10E340007002E2420603B0122EFEA2423402F240F4
:10E35000F0FFFE02B2402000A40232C20343E242B8
:10E360002D0032D21F4254022F53B2937402072061
:10E370003FF0FE7F824F540282436401093C3FF02C
:10E38000FE7F3FD00080824F5402B24010006401F3
:10E39000F24013006E025F4202002FF21424B240DA
:10E3A0000D5A200182433602824360021D433E40E3
:10E3B00000103F406002B0129EEBF2F0FBFF020043
:10E3C000B2400D5A20013B406802B2400D5A200174
:10E3D0005F42FE027F90030002203040F4E56F921E
:10E3E000072C4F9378246F9302243040BEE7D63C2D
:10E3F0007F900A0002203040AAE77F90F0FF0224BD
:10E400003040BEE7F2B280023F2492B3B2013C201A
:10E410005F42FC025F53C24FFC026F920528C24369
:10E42000FC02F2F0F7FF80021F42B4015E42FC02E0
:10E4300012C30F1012C30F10CE4F30025F423002D2
:10E440005E4231020F5E5E4232020F5E5E42330276
:10E450000F5E12C30F1012C30F104E4FC24F0103B5
:10E460007E908AFF032CF2D25602063C7E9095FFE6
:10E470000328F2F0F7FF5602F2B280020324B01232
:10E480002EFE023CB01246FEC29309030320F2B2F4
:10E49000800203248293A4021A201F4234023F53B5
:10E4A000824F340202243040BEE7C243FE025E4285
:10E4B0000D030F4E3FF007005F4FAC023F5080004E
:10E4C000824F68025E53C24E0D033040BEE7A24346
:10E4D00034023040BEE7C293FF021824F2D020007D
:10E4E0001900829368020D205E420D030F4E3FF02B
:10E4F0000700D24FAC026802CB4301005E53C24E0C
:10E500000D03F2F0DFFF19003040BEE75F42560214
:10E51000C2930C030324E2B2700204206FD3C24FF3
:10E520005602043C7FF0FDFFC24F56025E4270026D
:10E530006EF35F42560205247FF0FBFFC24F560286
:10E54000033C6FD2C24F5602B293740209205F425D
:10E5500056025F9208030424C24F0803E2430503F6
:10E56000D292570256020D24E2B380020A20E24200
:10E570000603B0121AF4E243FE02A243A4023040A2
:10E58000BEE78293680202243040BEE7B0121AF45C
:10E59000E243FE02A243A4023040BEE7D2B3D80257
:10E5A0001324B0122EFEF24064000403F240030074
:10E5B000FE02A243A402B293740202243040BEE7DA
:10E5C000A242A4023040BEE78293A402022430405B
:10E5D000BEE7F2D080FF1900B012D0EAF24010007E
:10E5E0006E02F2D0100056029253A202C243FE0203
:10E5F0003040BEE7F2B280025D2492B3B2015A20ED
:10E600005D423A02C24D3B025C423902C24C3A02C0
:10E610005A423802C24A39021E42B40112C30E10D5
:10E6200012C30E104F4EC24E38025E4204037E5398
:10E63000C24E04030424B2D00300B0013B3C5E424E
:10E64000FC025E53C24EFC026E920228C243FC02E0
:10E650005E42FC024F4F4A4A0F5A4C4C0F5C4D4DE4
:10E660000F5D12C30F1012C30F10CE4F30025F4266
:10E6700030025E4231020F5E5E4232020F5E5E4247
:10E6800033020F5E12C30F1012C30F104E4FC24F52
:10E6900001037E908AFF032CF2D25602063C7E9044
:10E6A00095FF0328F2F0F7FF5602F2F0F7FF800221
:10E6B000B01246FEC293D5026924C243D502B012FD
:10E6C00062F5824F34020F937A245F4280027FF01A
:10E6D000FDFFC24F8002D2423F025702E2420603D0
:10E6E0007FF010000324F240030005031F42540290
:10E6F0002F53B293740205203FF0FE7F824F5402E5
:10E70000063C3FF0FE7F3FD00080824F5402D24251
:10E71000D4026202B01272EAF29003006302032490
:10E72000C243FE02303CA29334022B20B012F2ED21
:10E730006F42B012CEEF7D4003000E433F407100A8
:10E74000B01248ED7D4003003E423F400700B0124A
:10E7500048EDD242FE1056005F42FF107FD080FF8E
:10E76000C24F5700F2400A00FE025E4244020F4EC2
:10E770000F5F0F5E0F5F824FA402F240FAFF0503A6
:10E78000023CC243FE02B01246FE193C8293A40230
:10E790001620F2D080FF1900F2434E02B012D0EAE8
:10E7A000C243FE02B01246FE0A3C8293A402072036
:10E7B000F2D080FF1900C243FE02D24305035F423C
:10E7C000FE026F836F930B2C5F4228003FF0200006
:10E7D00002243040CAE3B01214F93040CAE332D008
:10E7E000D0003040CAE332D0F000FD3F304054FE4C
:10E7F000E2D22700F2F0FBFF2200E2D221005F42CA
:10E8000020002FF20E208243B602F2F0FDFF22001C
:10E81000F2F0FDFF2400F2F0FDFF2300E2D325001B
:10E8200030419243B602A2D28001B2D000028001F0
:10E83000B24088139201D2D36100F2D080FF610010
:10E84000F24034006200C2436300C2436400F2F04D
:10E85000FBFF2700E2D22200F2D006002600F2D011
:10E8600006004100F2F0FEFF6100D2D3010030410A
:10E870000B121D42B6021D9311200D43093C0C4F93
:10E880000C5D6B4C0C4D3C509602CC4B00001D5364
:10E890000D9EF523824D1C02E2D301003B41304125
:10E8A000B2400D5A20011F42B6021F93F923033CC8
:10E8B000B2400D5A20011F4218020F93F9239243D0
:10E8C00018021F421A021F93EB233F4082061F8348
:10E8D000FE231F4216021F93132403283F92E023B6
:10E8E0003E3C1F4214020F93DB27824324023E402A
:10E8F00006003F400D02B01270E8A2431402D03F60
:10E90000824324023E4006003F400D02B01270E8F0
:10E91000A2431402033CB2400D5A20011F422402BC
:10E920000F93F9273F40CF071F83FE230343B240D5
:10E930000D5A2001824324023E4006003F40070258
:10E94000B01270E892431402033CB2400D5A200109
:10E950001F4224020F93F92782432402063C5F42A0
:10E960008B029E3FB2400D5A20011F4216022F9388
:10E97000F9233F40040D1F83FE2303430343B240AA
:10E980000D5A20013E4005003F400202B01270E8DF
:10E99000B2421402033CB2400D5A20011F4224022D
:10E9A0000F93F9278243240230410B121F42740156
:10E9B0001D42B8023F50C9060F8D1E42BA020D5EBD
:10E9C0003D5037F91C4270010B4D0B8C0B930238F4
:10E9D000824D74010F9E1A2C0E8F3E90070037282F
:10E9E0001F4282021E4284020F9E022C1F53193CBA
:10E9F0001F4286020E9F022C1E531B3C1E428802A1
:10EA00000F9E022C1F531D3C1E531F3C0F8E3F9028
:10EA100007001D281F4282021E4284020E9F042C02
:10EA20003F53824F8202133C1F4286020F9E042CEA
:10EA30003E53824E84020B3C1E4288020E9F042CE1
:10EA40003F53824F8602033C3E53824E88023B4135
:10EA500030410E433F40695A1FEE74022E533E90E0
:10EA60000C00FA230E4F3EF0FF008F104F4F0FEEB9
:10EA70003041D2B380020724B24021006802F2F094
:10EA8000FEFF8002213C5E4263027E900300042070
:10EA9000B24051006802183C5F420D035E930820AB
:10EAA0000E4F3EF007005E4EAC023E50B100073CF8
:10EAB0000E4F3EF007005E4EAC023E50011E824EED
:10EAC00068025F53C24F0D03F2F0EFFF5602304170
:10EAD0005F4263025F9303247F9003000B20D242C6
:10EAE00056025702E2420603F2F0FDFF8002B01226
:10EAF00072EA30411F4266023F9303241F53824F44
:10EB000066025F4206034F9320245D420D030E4DC3
:10EB10003EF007005E4EAC023E505100824E68024D
:10EB20005D53C24D0D037F53C24F06036F931E20EA
:10EB30001F4254022F533FF0FE7FB293740202240F
:10EB40003FD00080824F5402113C1F4264023F9329
:10EB500003241F53824F6402D24256025702E242FC
:10EB60000603F2F0FDFF8002B01272EAE2B2D802B0
:10EB70000424F24010006E0230415F426E027F902A
:10EB80001700032C5F53C24F6E0230410C43043C0C
:10EB9000BE4F00002E531C530C9DFA23304132C24D
:10EBA0000343B2400D5A2001B24042A52A01B240AF
:10EBB00000A52C01B24002A528018E430000B240FE
:10EBC00000A52801B24010A52C01B2400D5A200129
:10EBD0000C43133CB24000A52C01B24040A52801D3
:10EBE000BE4F0000B24000A52801B24010A52C0184
:10EBF0002E53B2400D5A20011C530C9DEB231F4293
:10EC000070013F500002824F720132D230411E42E9
:10EC10005402824EE402D2425602E7029242A60217
:10EC2000E8029242A802EA0292427402F402D2423C
:10EC30006202F6025F4276020F5F0F5F0F5F0F5FA7
:10EC40005D4263024DDFC24DF7025F420A03C24FCD
:10EC5000E6027F508CFF7F900B00452C4F4F0F5FDB
:10EC6000104F56FED2427802EC02D2427902ED02F7
:10EC7000D2427A02EE02D2427B02EF02D2427C0200
:10EC8000F002D2427D02F102D2427E02F202E24260
:10EC9000F3023A3C9242AA02EC02B243EE02B243C1
:10ECA000F002F243F202F243F3022E3CF24019006A
:10ECB000EC02D243ED0292426402EE0292426602FC
:10ECC000F002083C92426402EC0292426602EE02BA
:10ECD000B243F002B243F202173C92426002EC02ED
:10ECE000B243EE02F53FC243E60292426002EC02FA
:10ECF000D2420103EE02D2426E02EF02924272024F
:10ED0000F0029242A202F2020F4E3FF006002F9351
:10ED10000F243F900300032C0F93072430412F92C0
:10ED20000B243F9006000F200B3CC2430A033041E6
:10ED3000F24077000A033041F24074000A03304188
:10ED4000F24076000A0330410B120A1209124D4DAF
:10ED5000094D29F3022432C203431DF30E24F2F0BD
:10ED6000FDFF1900F2F0FDFF1900F2F0FDFF1900A0
:10ED7000F2F0FDFF19003FD080003B423C40800094
:10ED80005A4221000CBF03247AD080FF023C7AF063
:10ED90007F00C24A2100D2D3210012C30C10F2F02E
:10EDA000FEFF21003B53EC233C423F4080005B428E
:10EDB00021000FBE03247BD080FF023C7BF07F004C
:10EDC000C24B2100D2D3210012C30F10F2F0FEFF7C
:10EDD00021003C53EC230D930224E2D31900F2F0FE
:10EDE0007F0021000993012432D239413A413B414D
:10EDF00030411E427001824E3402063CF2F07F0028
:10EE00001900B2400D5A20011F4270010F8E3F9031
:10EE10009A02F42BD242FC1056005F42FD107FD0C4
:10EE200080FFC24F57007D4003003E40B9003F4085
:10EE30000900B01248ED7D4003001E433F4007002B
:10EE4000B01248ED30410B120A12091208120712D3
:10EE50004C4C084C28F3022432C203431CF30F2409
:10EE6000F2F0FDFF1900F2F0FDFF1900F2F0FDFFD6
:10EE70001900F2F0FDFF19007ED080FF023C7ED029
:10EE800040003A423B4080004E4E594221000BBEAA
:10EE9000032479D080FF023C79F07F00C249210031
:10EEA000D2D3210012C30B10F2F0FEFF21003A531F
:10EEB000EC230B434D4D1D3C3A423E408000074F32
:10EEC000075B69470EB905245942210079D080FFBC
:10EED000043C5942210079F07F00C2492100D2D37D
:10EEE000210012C30E10F2F0FEFF21003A53E92375
:10EEF0001B530B9DE12B0C930224E2D31900F2F07B
:10EF00007F0021000893012432D237413841394132
:10EF10003A413B4130410B120A12091208124C4C83
:10EF2000084C28F3022432C203431CF30D24F2F0F0
:10EF3000FDFF1900F2F0FDFF1900F2F0FDFF1900CE
:10EF4000F2F0FDFF1900023C7ED0C0FF3A423B4088
:10EF500080004E4E594221000BBE032479D080FF21
:10EF6000023C79F07F00C2492100D2D3210012C3B4
:10EF70000B10F2F0FEFF21003A53EC230B434D4DF2
:10EF8000183C3A423E4080005942200039F040008F
:10EF90000324CFDE0000023CCFCE0000D2D32100FC
:10EFA00012C30E10F2F0FEFF21003A53ED231B5363
:10EFB0001F530B9DE62B0C930224E2D319000893F8
:10EFC000012432D2384139413A413B41304131503C
:10EFD000F4FFB29374020420F24017006E02173C53
:10EFE0005E424E027E904F0007285E426E027E9087
:10EFF00017000D2C5E53093C7E904100082C5E42A8
:10F000006E027E90110003287E53C24E6E02D142E2
:10F010006E020100F1400C000200F140CDFF030040
:10F02000F14005000400F14023000500F1402800F4
:10F030000600F290030063020B20E2B3D80208241A
:10F04000F2F0FDFFD802C1430700C1430800093CAC
:10F050001E42AA02C14E07008E107EF00300C14E70
:10F060000800F140730009004F4F0F5F1F4F94FEDF
:10F070000E4F8E10C14E0A00C14F0B00C14300005D
:10F08000093C5D437E4062000F41B01216EFF2E092
:10F09000400019006F413FF0E0007C4003003F90CA
:10F0A0002000EF237D427E4005003F408BFEB012E2
:10F0B00046EE7D4003003E4080003F405800B012C5
:10F0C00048ED7C4003007D400B007E406D000F4109
:10F0D0001F53B01246EE7C4003007D400A007E4084
:10F0E0001C003F4081FEB01246EE7D4003003E40D2
:10F0F00028003F402A00B01248ED7D4003003E400A
:10F1000060003F406900B01248ED7D4003003E4082
:10F110008C003F403000B01248ED7C4003007D4041
:10F1200005007E4033003F407CFEB01246EEF140C9
:10F130003E000100F1403E000200F1403E000300AD
:10F140007C4003007D4003007E407D000F411F5343
:10F15000B01246EE7D4003003E4013003F42B01225
:10F1600048ED7D4003003E4010003F42B01248EDA4
:10F170007C4003006D437E4003000F411F53B012DB
:10F1800016EFF14006000100F140C1FF02007C4093
:10F1900003006D437E4005000F411F53B01246EE41
:10F1A0007C4003006D437E4003000F411F53B012AB
:10F1B00016EF31500C0030410B120A1209124E4E5C
:10F1C0006A4F494A0C430D494B4C7BF00F004B935F
:10F1D00003240D117B53FB3F1DF301241E531C53CD
:10F1E0003C900700F0231EF303247AD080FF023CFA
:10F1F0007AF07F00CF4A000039413A413B4130412B
:10F200000B124E4E0C434F4F0D4F4B4C7BF00F00EB
:10F210004B9303240D117B53FB3F1DF301241E531D
:10F220001C533C92F1231EF31F4301240F433B4127
:10F2300030410B120A120A4F0C4F8C101CF30C5C5D
:10F240000D4F8D104D4D12C30D100E4D1EF30E5E61
:10F250000E5E0C5E1FF30C5F2DF30D5D0D5D3E40E9
:10F2600035C10F434D5C7DF01F004D9304240F11F9
:10F270000E107D53FA3F0B4E3BF005000B5B0D4A21
:10F2800012C30D1012C30D100F4D1FF30F5F0C4D65
:10F290002CF20C5F12C30A101AF30C5A3DF23E40D6
:10F2A00096540F434D5C7DF01F004D9304240F11C5
:10F2B0000E107D53FA3F3EF005000F4B0F5E3A41B2
:10F2C0003B4130410B120A120912081207120612B2
:10F2D0000512454F074E0A4C5E4280020D931D34C5
:10F2E0007ED02000C24E8002184274020B4D0943AA
:10F2F0000D4B0DE80E470E590F4D2FEEB01232F2A6
:10F300000D4B0D5D0D5D0D5D0D5D0B4D0B5F2953BF
:10F310003992EE23094345453D3C7EF0DFFFC24E66
:10F3200080020B4D09430E470E590F4B2FEEB012C2
:10F3300032F20D4B0D5D0D5D0D5D0D5D0B4D0B5FE7
:10F3400029533992F023E63FCA4300000D493DF0AE
:10F3500007000D5D0647065D0F4B2F56B01232F2C7
:10F36000CA4F00000B5B084F38F0030008EB0F4852
:10F370002F56B01232F20B4F0B5B0B5B0B5B0B5B30
:10F38000CA5B00000C480C5C0B4F3BF003000BEC1D
:10F3900019531A530995D82B354136413741384115
:10F3A00039413A413B4130410B120A1209123150A6
:10F3B000EEFF0A4F094E0B4D0C410D4F3E406CFEC7
:10F3C0007F401200B012C4F24E430F49B012B8F1A0
:10F3D0005E430F491F53B012B8F10C430F4B0F5C43
:10F3E0000D410D5C0E490E5C6D4D6DEECF4D020072
:10F3F0001C533C901200F2235F4B0A004FEACB4FA4
:10F4000000008A105F4B0C004FEACB4F01003150D7
:10F41000120039413A413B4130413150ECFFF2900A
:10F42000030063020320F24011000503C2930703A7
:10F430000924C24307031D433E4000103F406002C1
:10F44000B0129EEBB012F2EDE2D38002B0120EECDD
:10F450000D413E40E6021F42E402B012A8F3F2F072
:10F46000FEFFD8025F427602B012CEEF7D4003006D
:10F470003E4014003F403E00B01248ED7C40030087
:10F480007D4014007E407F000F41B01246EE7D406B
:10F4900003003E400B003F400700B01248EDC2435E
:10F4A000D502F2F0FBFFD802D242FE1056005F42B6
:10F4B000FF107FD080FFC24F570031501400304101
:10F4C0000B120A1209123150ECFF0A4F0B4E594F22
:10F4D0000A0069EF49495F4F0C005FEA01004F4F96
:10F4E0008F10095F0C410D493E406CFE7F401200B9
:10F4F000B012C4F24E435F4A02006FE1B01200F254
:10F500000F9321245E435F4A03005FE10100B012C4
:10F5100000F20F931F20183C0E4B0E5F0C410C5F46
:10F520000D4A0D5F6C4C5CED0200CE4C02001F5387
:10F530003F901200F123FBF07F000200FBF07F0000
:10F5400003001F43013C0F433150140039413A413D
:10F550003B413041CB4900008910CB4901000F43AA
:10F56000DB3F0B12F2901600BC02022430400AF975
:10F570005F42D2028F105E42D1020F5E824FBA020A
:10F580003E403C023F40BD02B012C0F40F93022047
:10F5900030400AF91D42A6021D924002022430406A
:10F5A0000AF91C42A8021C924202022430400AF9C5
:10F5B0001F4254021F531F923C02022430400AF99A
:10F5C0001E4274023E9305241E924C0202243040D7
:10F5D0000AF95F423E027F90770002203040CAF86D
:10F5E0007F907800202C7F9072007E247F907300A3
:10F5F0000A2C5F930220304088F87F90710002242B
:10F600003040F4F84D3C7F90750002203040D2F835
:10F610007F90760002283040C2F87F907300022469
:10F620003040F4F8963C7F907B00C8247F907C00AB
:10F630000A2C7F9078001D247F90790002243040AE
:10F64000F4F8304068F87F907D000724E5287F902B
:10F650007E0002243040F4F8A23C1F4248023F9052
:10F660001500022C3040F4F8F240030063023040F1
:10F6700076F8F29003006302022430400AF95F42F8
:10F6800045025FF34F5F5E42D8027EF0FDFF4EDF22
:10F69000C24ED802924248026C022F43304010F909
:10F6A000F29003006302022430400AF91E42440231
:10F6B000824EAA02924248026C020F4C0F5D0F5E0E
:10F6C0001F52AC021F52AE021F52B0021F52B202B2
:10F6D0003FE3824FB4023D423E4080103F40A602CD
:10F6E000B0129EEB3040CAF8F2900300630202248D
:10F6F00030400AF91F424402824FA6025E4246028F
:10F70000824EA8021B424802824BAC021C424A02B3
:10F71000824CAE021D424C02824DB002D2424E02D9
:10F72000B202F2434E02D2424F02B3020F5B0F5CB1
:10F730000F5D1F52AA021F52B2020F5E3FE3824FBB
:10F74000B4023D423E4080103F40A602B0129EEB04
:10F75000CE3CD24244027802D24245027902D242E1
:10F7600046027A02D24247027B02D24248027C021F
:10F77000D24249027D02D2424A027E02E2427F0226
:10F78000C2437702B01252EAC24F77023D400600F0
:10F790003E4040103F407402B0129EEB923C8243C8
:10F7A0003602824360021D433E4000103F4060022B
:10F7B000B0129EEBF2407E000A03993C1F424402C5
:10F7C0001F924C02A2200E4F3EE31E9248029D2043
:10F7D0001E4246021D424A023DE30E9D96203F9383
:10F7E0009424824F7402C24E7602C2437702B01252
:10F7F00052EAC24F77023D4006003E4040103F4073
:10F800007402B0129EEBF24076000A03D2D380025B
:10F81000B240100064017B3C3E937724B2934402D3
:10F8200074208293480271201F4246021E424A02FF
:10F830003EE30F9E6A200F936820B2437402C243D6
:10F840007602C2437702B01252EAC24F77023D40BD
:10F8500006003E4040103F407402B0129EEBD2D3EF
:10F86000800282436401533C1F4248023F901500CE
:10F870000528D2436302824F6C02493CD293630253
:10F880003920D2D38002363C1E924C0240205F4287
:10F890004F024E4F7EF00300C24E02033FF20F11A3
:10F8A0000F110F114F4F4F5F4F5F4F5F4F5F5E4222
:10F8B00080027EF0EFFF4EDFC24E8002B012AAE956
:10F8C0001F3CF24076000A03123CF24077000A0324
:10F8D0000E3C8243640282436602F2F0EFFF56025E
:10F8E000824372028243A202F24075000A03D2D31D
:10F8F00080020D3C3E930420F2400F006302023C64
:10F90000C243630282436C02023C0F43013C1F432B
:10F910003B4130412182D242FC1056005F42FD1033
:10F920007FD080FFC24F57005C436D437E40030091
:10F930000F411F53B01216EF5F4102003FF040002D
:10F940000C245D433E4012003F42B01248ED5D433F
:10F950003E4010003F42B01248EDC19302001D34FA
:10F9600092427001B8025C435D437E4026000F4125
:10F97000B01216EF6F4112C34F10C14F00007F90BD
:10F980007A00062C7E407A004E8FC24ED402023C92
:10F99000C243D402F240060004035F4101002FF38A
:10F9A00031245C435D437E404B000F41B01216EFA3
:10F9B000F190160000001A20D2B3D80217245C433D
:10F9C0007D4017007E407F003F40BC02B01216EF22
:10F9D0006F415F53C24FD602C24FD502C1430100EF
:10F9E000C1430200F2D080FF19000C3C5D433E4051
:10F9F00013003F42B01248ED5D433E4010003F42CD
:10FA0000B01248ED5F4101002FF20824D2D3D80292
:10FA10005D432E423F400700B01248ED5F410200B7
:10FA20001FF3072492537202E2D2D802F2D080FF71
:10FA30001900D242FE1056005F42FF107FD080FFB7
:10FA4000C24F5700215230410F125F4223002FF264
:10FA500017245F4225002FF21324F2F0FBFF25004C
:10FA6000F240030000035F420C034F9303247F53D3
:10FA7000C24F0C035F4278024F5F4F5FC24F0303D8
:10FA80003F4100130F120E121F4222020E4F3E5032
:10FA90009602E24E67001F53824F22021F4222024B
:10FAA0001F9312201F4200021F930E205F42670027
:10FAB0004F930A20B2D010008201B2D01000800112
:10FAC000F2F0FDFF01000F3C1E4222021F421C0209
:10FAD0000E9F0920F2F0FDFF0100824322029243B3
:10FAE0000002924324023E413F4100130F120E12C6
:10FAF0000D120C120B121F421E021F931024062817
:10FB00002F9315243F900300A820173C5F42660006
:10FB10004F93A1208243260292431E029E3C5F42E5
:10FB200066007F90AAFF9720A2431E02963CD24215
:10FB300066002802C2432902133C1F4226021D42CE
:10FB400028020B4F2B530C4D3C530E4F3E508A0254
:10FB50000B9C0A34DE42660000001F53824F2602CF
:10FB6000B24003001E02793CDE4266000000824380
:10FB70002A023D50AA000E43073C0C4E3C508A021C
:10FB80006C4C4C4C0D5C1E530E9FF73B824D2C026F
:10FB9000824E2A023F508A026F4F5F922C0203244A
:10FBA00082431A02023C92431A025F428A027F9009
:10FBB00090FF3A247F9091FF112C7F90150025240F
:10FBC0007F901600042C7F90060043201B3C7F9002
:10FBD00070001F247F9071003C201E3C7F9093FF9B
:10FBE0002E247F9094FF072C7F9091FF20247F90FC
:10FBF00092FF2F20203C7F9094FF25247F9095FF3B
:10FC00002820243CA2431602243CB24003001602E2
:10FC1000203C824316021D3C5F428B027F901F00F6
:10FC2000182092431602153CA2421602123CB24022
:10FC3000050016020E3CB240060016020A3CB24015
:10FC400007001602063CB2421602033CB24009000D
:10FC500016028243180282431E023B413C413D4151
:10FC60003E413F4100130F120E12B25000027201CA
:10FC7000F2D00A002900F2D0200021001F42A40285
:10FC80000F9303243F53824FA4025F42FF024F931E
:10FC900003247F53C24FFF025E4228005F422000D0
:10FCA0007FF020007EF00E004FDED2432900F2F0FC
:10FCB000DFFF21005E420B034E9F07247FF02E00E2
:10FCC000C24F0B03E24209030D3C5F4209034F930D
:10FCD00004247F53C24F0903053C7F402E004FCEC2
:10FCE000C24F70025F4200034F9309247F53C24FFB
:10FCF00000030520F2F0FBFF2B00E2D22D001F4293
:10FD000068020F9303243F53824F68025F422E0222
:10FD10005F53C24F2E027F9010004A28C2432E022A
:10FD20005F4205034F930F247F53C24F0503052005
:10FD30005F4219007FF0BFFF043C5F4219007FD093
:10FD40004000C24F19005F4203034F9307247F53C3
:10FD5000C24F03030320D24279020C035F422F02F9
:10FD60005F53C24F2F026F922328C2432F021F42BC
:10FD700036021F53824F36023F90110E06288243EF
:10FD8000360292536002D24307031F426C020F9364
:10FD90000F243F53824F6C020B20B2937402042055
:10FDA000F2400F006302023CC243630282436C02D2
:10FDB000B1C0D00004003E413F4100130F120E12AB
:10FDC0000D12F2D0200019001F422E01C24FFF0277
:10FDD0005F42FD025F53C24FFD026F920228C24391
:10FDE000FD021D4274015E42FD020E5E5F4202038F
:10FDF0008F100F5F0F5F0F5F1F5E82020F5D824FDC
:10FE00007401E242FF02F2F0DFFF19003D413E4182
:10FE10003F4100130F12B2F0EFFF8001B2F0EFFF8D
:10FE2000820182430002E2D301003F410013B2404D
:10FE300000B0B201B2407035B001B2D00300B001E1
:10FE4000F2D280023041B2F0FDFFB001B240403545
:06FE5000B0013041FF3F4C
:10FE5600ACECC4EC64EC94ECE6ECE6ECE6ECE6EC3C
:10FE6600E6ECE6ECDAECF8F3A55A994657C32659C0
:10FE76009C5A28AF3236020C2A543D05440A0350D8
:10FE860001999A066800000113B9071215008066E9
:0AFE96000069806B006EC06719015F
:10FEA000010000AA0439E700AA053001E000AA0514
:0AFEB000067126000A000A00010096
:10FFE000ECE7ECE748FAECE7ECE7ECE784FAECFA4C
:10FFF000BCFD66FCECE7ECE7ECE714FEECE700E0A8
:040000030000E00019
:00000001FF
